:100000000C942A000C943C000C943C000C943C0092
:100010000C943C000C943C000C943C000C943C0070
:100020000C943C000C943C000C943C000C943C0060
:100030000C943C000C943C000C943C000C943C0050
:100040000C943C000C943C000C943C000C943C0040
:100050000C943C0011241FBECFE5D8E0DEBFCDBF1D
:1000600020E0A0E6B0E001C01D92A036B207E1F7A3
:100070000E94A0000C94FA010C94000060E081E45E
:100080000E949400811119C061E081E40E949400F3
:10009000811115C062E081E40E949400811111C0B9
:1000A00063E081E40E94940081110DC060E083E46C
:1000B0000E948900811109C0089581E0089581E0BE
:1000C000089581E0089581E0089581E00895CF9337
:1000D000DF931F92CDB7DEB7198260E081E40E9402
:1000E0009A0061E081E40E949A0062E081E40E944B
:1000F0009A0063E081E40E949A00AE014F5F5F4F77
:1001000060E083E40E948F0080E00F90DF91CF9148
:10011000089540E00E94A500811181E008950E94A9
:10012000BD01811181E0089541E00E94A500811187
:1001300081E0089540E00E943101811181E008953D
:100140000E943E000E946700FDCF823449F118F4FE
:10015000813441F07DC0833409F440C0843409F413
:100160005AC076C041110DC02AB381E090E002C0B0
:10017000880F991F6A95E2F7809582238ABB80E0F9
:100180000895413009F065C02AB381E090E002C0D3
:10019000880F991F6A95E2F7822B8ABB80E0089549
:1001A00041110DC027B381E090E002C0880F991F74
:1001B0006A95E2F78095822387BB80E008954130FD
:1001C00009F049C027B381E090E002C0880F991F71
:1001D0006A95E2F7822B87BB80E0089541110DC03C
:1001E00024B381E090E002C0880F991F6A95E2F77E
:1001F0008095822384BB80E00895413071F524B35B
:1002000081E090E002C0880F991F6A95E2F7822B87
:1002100084BB80E0089541110DC021B381E090E0DE
:1002200002C0880F991F6A95E2F78095822381BBEF
:1002300080E00895413099F421B381E090E002C05C
:10024000880F991F6A95E2F7822B81BB80E00895A1
:10025000089581E0089581E0089581E0089581E0A6
:100260000895823449F118F4813441F07DC083341B
:1002700009F440C0843409F45AC076C041110DC05D
:100280002BB381E090E002C0880F991F6A95E2F7D6
:10029000809582238BBB80E00895413009F065C0D2
:1002A0002BB381E090E002C0880F991F6A95E2F7B6
:1002B000822B8BBB80E0089541110DC028B381E0F3
:1002C00090E002C0880F991F6A95E2F7809582231B
:1002D00088BB80E00895413009F049C028B381E02F
:1002E00090E002C0880F991F6A95E2F7822B88BBC5
:1002F00080E0089541110DC025B381E090E002C077
:10030000880F991F6A95E2F78095822385BB80E06C
:100310000895413071F525B381E090E002C0880F67
:10032000991F6A95E2F7822B85BB80E00895411101
:100330000DC022B381E090E002C0880F991F6A953A
:10034000E2F78095822382BB80E00895413099F4E2
:1003500022B381E090E002C0880F991F6A95E2F70E
:10036000822B82BB80E00895089581E0089581E0AA
:10037000089581E0089581E008958234A9F018F489
:10038000813431F035C08334D9F0843429F130C060
:1003900089B390E002C0959587956A95E2F78170E0
:1003A000FA01808380E0089586B390E002C09595BD
:1003B00087956A95E2F78170FA01808380E008955D
:1003C00083B390E002C0959587956A95E2F78170B6
:1003D000FA01808380E0089580B390E002C0959593
:1003E00087956A95E2F78170FA01808380E008952D
:0803F00081E00895F894FFCFAD
:00000001FF
