S01800004C45442D737175656E63652D76312E302E73726563E4
S11300000C9432000C943C000C943C000C943C0086
S11300100C943C000C943C000C943C000C943C006C
S11300200C943C000C943C000C943C000C943C005C
S11300300C943C000C943C000C943C000C943C004C
S11300400C943C000C943C000C943C000C943C003C
S11300500C943C00710082009300A400B500C6001B
S1130060D700E80011241FBECFE5D8E0DEBFCDBF26
S11300700E943C010C949E020C94000060E081E418
S11300800E942A0161E081E40E942A0162E081E485
S11300900E942A0163E081E40E942A0160E083E473
S11300A00E94FA0080E00895CF93DF931F92CDB7AA
S11300B0DEB7198210E0AE014F5F5F4F60E083E46A
S11300C00E9400018981811101C01F5F812F90E08E
S11300D0FC013197E830F10570F7E65DFF4F0C94B1
S11300E0980260E081E40E94300161E081E40E94B2
S11300F0360162E081E40E94360163E081E40E94FB
S11301003601D9CF60E081E40E94300161E081E4EE
S11301100E94300162E081E40E94360163E081E4E0
S11301200E943601C8CF60E081E40E94300161E0A2
S113013081E40E94300162E081E40E94300163E0C6
S113014081E40E943601B7CF60E081E40E9430016F
S113015061E081E40E94300162E081E40E943001A8
S113016063E081E40E943001A6CF60E081E40E9454
S1130170360161E081E40E94300162E081E40E9482
S1130180300163E081E40E94300195CF60E081E4B6
S11301900E94360161E081E40E94360162E081E45C
S11301A00E94300163E081E40E94300184CF60E06A
S11301B081E40E94360161E081E40E94360162E03C
S11301C081E40E94360163E081E40E94300173CF30
S11301D060E081E40E94360161E081E40E9436011E
S11301E062E081E40E94360163E081E40E9436010A
S11301F010E061CF40E00E944301811181E0089545
S11302000F931F93CF93DF93182F062FEA010E94B9
S11302105B0288818130B1F42FE788E391E02150BB
S113022080409040E1F700C00000AE01602F812FB4
S11302300E945B028881813011F4188205C081E03C
S1130240888302C081E0888381E0DF91CF911F9190
S11302500F91089541E00E944301811181E00895C6
S113026041E00E94CF01811181E0089540E00E94A5
S1130270CF01811181E008950E943E000E94540044
S113028080E090E00895823449F118F4813441F01B
S11302907DC0833409F440C0843409F45AC076C064
S11302A041110DC02AB381E090E002C0880F991F6C
S11302B06A95E2F7809582238ABB80E008954130F5
S11302C009F065C02AB381E090E002C0880F991F4D
S11302D06A95E2F7822B8ABB80E0089541110DC034
S11302E027B381E090E002C0880F991F6A95E2F776
S11302F08095822387BB80E00895413009F049C08E
S113030027B381E090E002C0880F991F6A95E2F755
S1130310822B87BB80E0089541110DC024B381E096
S113032090E002C0880F991F6A95E2F780958223B6
S113033084BB80E00895413071F524B381E090E0FE
S113034002C0880F991F6A95E2F7822B84BB80E074
S1130350089541110DC021B381E090E002C0880FDF
S1130360991F6A95E2F78095822381BB80E0089506
S1130370413099F421B381E090E002C0880F991FC5
S11303806A95E2F7822B81BB80E00895089581E0AD
S1130390089581E0089581E0089581E0089582340C
S11303A049F118F4813441F07DC0833409F440C02C
S11303B0843409F45AC076C041110DC02BB381E0D6
S11303C090E002C0880F991F6A95E2F78095822316
S11303D08BBB80E00895413009F065C02BB381E008
S11303E090E002C0880F991F6A95E2F7822B8BBBBD
S11303F080E0089541110DC028B381E090E002C06F
S1130400880F991F6A95E2F78095822388BB80E064
S11304100895413009F049C028B381E090E002C05A
S1130420880F991F6A95E2F7822B88BB80E00895B4
S113043041110DC025B381E090E002C0880F991FDF
S11304406A95E2F78095822385BB80E00895413068
S113045071F525B381E090E002C0880F991F6A9579
S1130460E2F7822B85BB80E0089541110DC022B3D1
S113047081E090E002C0880F991F6A95E2F78095A9
S1130480822382BB80E00895413099F422B381E055
S113049090E002C0880F991F6A95E2F7822B82BB15
S11304A080E00895089581E0089581E0089581E051
S11304B0089581E008958234A9F018F4813431F06C
S11304C035C08334D9F0843429F130C089B390E045
S11304D002C0959587956A95E2F78170FA01808349
S11304E080E0089586B390E002C0959587956A955B
S11304F0E2F78170FA01808380E0089583B390E08D
S113050002C0959587956A95E2F78170FA01808318
S113051080E0089580B390E002C0959587956A9530
S1130520E2F78170FA01808380E0089581E0089504
S1130530EE0FFF1F0590F491E02D0994F894FFCF7E
S9030000FC
