S01800004C45442D737175656E63652D76332E302E73726563E2
S11300000C9432000C9437010C9450010C9444006D
S11300100C9444000C9444000C9444000C9444004C
S11300200C9444000C9444000C9444000C94680117
S11300300C9444000C9444000C9444000C9444002C
S11300400C9444000C9444000C9444000C9444001C
S11300500C944400C700CA00CD00D000D300D500E2
S1130060D700D90011241FBECFE5D8E0DEBFCDBF35
S113007020E0A0E6B0E001C01D92A436B207E1F78B
S11300800E9491010C94C7020C9400000F931F93DB
S1130090AC01109263001092620012BE83B78260BA
S11300A083BF9A01A8EEB3E00E94B8028B019C01C1
S11300B08091620090916300A0E0B0E0BA2FA92F74
S11300C0982F882762B7860F911DA11DB11D019637
S11300D0A11DB11D80179107A207B30710F313BE2A
S11300E01F910F91089561E081E40E947F0162E015
S11300F081E40E947F0163E081E40E947F0164E067
S113010081E40E947F0185B7836085BF85B78C60D9
S113011085BF8BB780648BBF8BB780688BBF89B773
S1130120816089BF789480E00895CF93DF93CDB741
S1130130DEB728970FB6F894DEBF0FBECDBF81E0BF
S1130140898382E08A8383E08B8384E08C831D82AD
S11301501E821F82188610E00BC0E1E0F0E0EC0F75
S1130160FD1FE10FF11D608181E40E948B011F5F7F
S1130170143098F3E09161008E2F90E0FC013197E8
S1130180E830F105B8F4E65DFF4F0C94B20281E06B
S11301908D8310C081E08E830DC081E08F830AC0FF
S11301A081E0888707C01D8205C01E8203C01F82AC
S11301B001C0188680916000823081F028F4882381
S11301C0F9F0813031F021C0833071F0843091F046
S11301D01CC06894FF24F5F808EC17C00F2EFCEB44
S11301E0FF2EF02D0CE211C00F2EF4EFFF2EF02D98
S11301F004EF0BC00F2EF8ECFF2EF02D00E205C02B
S11302000F2EF4E8FF2EF02D04E610E016C0812F27
S113021090E0E5E0F0E0EC0FFD1FE80FF91F20810E
S1130220213051F4E1E0F0E0EC0FFD1FE80FF91F7D
S1130230608181E40E9485011F5F143040F3802FA8
S113024090E00E94460010E00BC0E1E0F0E0EC0F0B
S1130250FD1FE10FF11D608181E40E948B011F5F8E
S1130260143098F38F2D90E00E94460074CF1F92B3
S11302700F920FB60F9211248F93809161008830F2
S113028030F4809161008F5F8093610003C081E04E
S1130290809361008F910F900FBE0F901F9018955F
S11302A01F920F920FB60F9211248F9380916000CA
S11302B0853030F4809160008F5F8093600002C0CD
S11302C0109260008F910F900FBE0F901F901895A1
S11302D01F920F920FB60F9211248F939F938091C8
S11302E06200909163000196909363008093620092
S11302F09F918F910F900FBE0F901F90189541E022
S11303000E949801811181E0089541E00E94250234
S1130310811181E0089540E00E942502811181E06D
S113032008950E9473000E94950080E090E0089573
S1130330823449F118F4813441F07DC0833409F4E6
S113034040C0843409F45AC076C041110DC02AB3A8
S113035081E090E002C0880F991F6A95E2F78095CA
S113036082238ABB80E00895413009F066C02AB335
S113037081E090E002C0880F991F6A95E2F7822B12
S11303808ABB80E0089541110DC027B381E090E05D
S113039002C0880F991F6A95E2F78095822387BB74
S11303A080E00895413009F04AC027B381E090E02D
S11303B002C0880F991F6A95E2F7822B87BB80E001
S11303C0089541110DC024B381E090E002C0880F6C
S11303D0991F6A95E2F78095822384BB80E0089593
S11303E0413079F524B381E090E002C0880F991F71
S11303F06A95E2F7822B84BB80E0089541110DC019
S113040021B381E090E002C0880F991F6A95E2F75A
S11304108095822381BB80E008954130A1F421B30B
S113042081E090E002C0880F991F6A95E2F7822B61
S113043081BB80E0089581E0089581E0089581E022
S1130440089581E0089581E00895823449F118F413
S1130450813441F07DC0833409F440C0843409F40C
S11304605AC076C041110DC02BB381E090E002C0A8
S1130470880F991F6A95E2F7809582238BBB80E0F1
S11304800895413009F066C02BB381E090E002C0CA
S1130490880F991F6A95E2F7822B8BBB80E0089541
S11304A041110DC028B381E090E002C0880F991F6C
S11304B06A95E2F78095822388BB80E008954130F5
S11304C009F04AC028B381E090E002C0880F991F68
S11304D06A95E2F7822B88BB80E0089541110DC034
S11304E025B381E090E002C0880F991F6A95E2F776
S11304F08095822385BB80E00895413079F525B34A
S113050081E090E002C0880F991F6A95E2F7822B80
S113051085BB80E0089541110DC022B381E090E0D5
S113052002C0880F991F6A95E2F78095822382BBE7
S113053080E008954130A1F422B381E090E002C04C
S1130540880F991F6A95E2F7822B82BB80E0089599
S113055080E0089581E0089581E0089581E00895A0
S113056081E00895EE0FFF1F0590F491E02D0994AA
S1130570A29FB001B39FC001A39F700D811D1124E0
S1130580911DB29F700D811D1124911D0895F89441
S1050590FFCF97
S9030000FC
