S01800004C45442D737175656E63652D76312E302E73726563E4
S11300000C9432000C943C000C943C000C943C0086
S11300100C943C000C943C000C943C000C943C006C
S11300200C943C000C943C000C943C000C943C005C
S11300300C943C000C943C000C943C000C943C004C
S11300400C943C000C943C000C943C000C943C003C
S11300500C943C007C008D009E00AF00C000D100D9
S1130060E200F30011241FBECFE5D8E0DEBFCDBF10
S11300700E9422010C9484020C94000060E081E44C
S11300800E94100161E081E40E94100162E081E4B9
S11300900E94100163E081E40E94100160E083E4A7
S11300A00E94050180E00895CF93DF931F92CDB79E
S11300B0DEB7198210E0AE014F5F5F4F60E083E46A
S11300C00E940B018981813061F407C0AE014F5F4A
S11300D05F4F60E083E40E940B0189818130B1F3BA
S11300E01F5F812F90E0FC013197E830F10518F78C
S11300F0E65DFF4F0C947E0260E081E40E941601ED
S113010061E081E40E941C0162E081E40E941C0120
S113011063E081E40E941C01CECF60E081E40E9490
S1130120160161E081E40E94160162E081E40E940C
S11301301C0163E081E40E941C01BDCF60E081E406
S11301400E94160161E081E40E94160162E081E4EC
S11301500E94160163E081E40E941C01ACCF60E0C0
S113016081E40E94160161E081E40E94160162E0CC
S113017081E40E94160163E081E40E9416019BCF92
S113018060E081E40E941C0161E081E40E941601A8
S113019062E081E40E94160163E081E40E9416019A
S11301A08ACF60E081E40E941C0161E081E40E9446
S11301B01C0162E081E40E94160163E081E40E9474
S11301C0160179CF60E081E40E941C0161E081E4C2
S11301D00E941C0162E081E40E941C0163E081E44E
S11301E00E94160168CF60E081E40E941C0161E076
S11301F081E40E941C0162E081E40E941C0163E02E
S113020081E40E941C0110E056CF40E00E942901C5
S1130210811181E008950E944102811181E00895D5
S113022041E00E942901811181E0089541E00E948A
S1130230B501811181E0089540E00E94B50181116A
S113024081E008950E943E000E94540080E090E006
S11302500895823449F118F4813441F07DC0833427
S113026009F440C0843409F45AC076C041110DC069
S11302702AB381E090E002C0880F991F6A95E2F7E3
S1130280809582238ABB80E00895413009F065C0DF
S11302902AB381E090E002C0880F991F6A95E2F7C3
S11302A0822B8ABB80E0089541110DC027B381E001
S11302B090E002C0880F991F6A95E2F78095822327
S11302C087BB80E00895413009F049C027B381E03D
S11302D090E002C0880F991F6A95E2F7822B87BBD2
S11302E080E0089541110DC024B381E090E002C084
S11302F0880F991F6A95E2F78095822384BB80E07A
S11303000895413071F524B381E090E002C0880F74
S1130310991F6A95E2F7822B84BB80E0089541110E
S11303200DC021B381E090E002C0880F991F6A9547
S1130330E2F78095822381BB80E00895413099F4EF
S113034021B381E090E002C0880F991F6A95E2F71B
S1130350822B81BB80E00895089581E0089581E0B7
S1130360089581E0089581E00895823449F118F4F4
S1130370813441F07DC0833409F440C0843409F4ED
S11303805AC076C041110DC02BB381E090E002C089
S1130390880F991F6A95E2F7809582238BBB80E0D2
S11303A00895413009F065C02BB381E090E002C0AC
S11303B0880F991F6A95E2F7822B8BBB80E0089522
S11303C041110DC028B381E090E002C0880F991F4D
S11303D06A95E2F78095822388BB80E008954130D6
S11303E009F049C028B381E090E002C0880F991F4A
S11303F06A95E2F7822B88BB80E0089541110DC015
S113040025B381E090E002C0880F991F6A95E2F756
S11304108095822385BB80E00895413071F525B332
S113042081E090E002C0880F991F6A95E2F7822B61
S113043085BB80E0089541110DC022B381E090E0B6
S113044002C0880F991F6A95E2F78095822382BBC8
S113045080E00895413099F422B381E090E002C035
S1130460880F991F6A95E2F7822B82BB80E008957A
S1130470089581E0089581E0089581E0089581E080
S113048008958234A9F018F4813431F035C08334EE
S1130490D9F0843429F130C089B390E002C0959535
S11304A087956A95E2F78170FA01808380E0089568
S11304B086B390E002C0959587956A95E2F78170BE
S11304C0FA01808380E0089583B390E002C095959B
S11304D087956A95E2F78170FA01808380E0089538
S11304E080B390E002C0959587956A95E2F7817094
S11304F0FA01808380E0089581E00895EE0FFF1FE4
S10F05000590F491E02D0994F894FFCFCD
S9030000FC
