S01800004C45442D737175656E63652D76322E302E73726563E3
S11300000C9433000C94A6000C9445000C94450009
S11300100C9445000C9445000C9445000C94450048
S11300200C9445000C9445000C9445000C94450038
S11300300C9445000C9445000C9445000C94450028
S11300400C9445000C9445000C9445000C94450018
S11300500C9445006E007E00830088008D009200A1
S113006097009C00A10011241FBECFE5D8E0DEBF9D
S1130070CDBF20E0A0E6B0E001C01D92A136B207DA
S1130080E1F70E94D5000C94FC010C94000061E09F
S113009081E40E94C30062E081E40E94C30063E043
S11300A081E40E94C30064E081E40E94C30060E034
S11300B083E40E94BD00789485B7836085BF8BB7C5
S11300C080648BBF80E00895E0916000F0E0E93047
S11300D0F105D0F7E65DFF4F0C94F60161E081E491
S11300E00E94CF0061E081E40E94CF0061E081E4DE
S11300F00E94CF0061E081E40E94CF0061E081E4CE
S11301000E94C900E1CF62E081E40E94C900DCCF13
S113011063E081E40E94C900D7CF64E081E40E94D7
S1130120C900D2CF61E081E40E94CF00CDCF62E06C
S113013081E40E94CF00C8CF63E081E40E94CF0035
S1130140C3CF64E081E40E94CF00BECF1F920F9220
S11301500FB60F9211248F9380916000883020F4A1
S11301608F5F8093600003C081E0809360008F9173
S11301700F900FBE0F901F90189540E00E94DC0076
S1130180811181E0089541E00E94DC00811181E049
S1130190089541E00E946901811181E0089540E0E1
S11301A00E946901811181E008950E9447000E9424
S11301B0640080E090E00895823449F118F48134B9
S11301C041F07DC0833409F440C0843409F45AC03A
S11301D076C041110DC02AB381E090E002C0880FBF
S11301E0991F6A95E2F7809582238ABB80E008957F
S11301F0413009F066C02AB381E090E002C0880F64
S1130200991F6A95E2F7822B8ABB80E00895411119
S11302100DC027B381E090E002C0880F991F6A9552
S1130220E2F78095822387BB80E00895413009F08E
S11302304AC027B381E090E002C0880F991F6A95F5
S1130240E2F7822B87BB80E0089541110DC024B3EF
S113025081E090E002C0880F991F6A95E2F78095CB
S1130260822384BB80E00895413079F524B381E092
S113027090E002C0880F991F6A95E2F7822B84BB35
S113028080E0089541110DC021B381E090E002C0E7
S1130290880F991F6A95E2F78095822381BB80E0DD
S11302A008954130A1F421B381E090E002C0880FA9
S11302B0991F6A95E2F7822B81BB80E0089581E063
S11302C0089581E0089581E0089581E0089581E032
S11302D00895823449F118F4813441F07DC08334A7
S11302E009F440C0843409F45AC076C041110DC0E9
S11302F02BB381E090E002C0880F991F6A95E2F762
S1130300809582238BBB80E00895413009F066C05C
S11303102BB381E090E002C0880F991F6A95E2F741
S1130320822B8BBB80E0089541110DC028B381E07E
S113033090E002C0880F991F6A95E2F780958223A6
S113034088BB80E00895413009F04AC028B381E0B9
S113035090E002C0880F991F6A95E2F7822B88BB50
S113036080E0089541110DC025B381E090E002C002
S1130370880F991F6A95E2F78095822385BB80E0F8
S11303800895413079F525B381E090E002C0880FEB
S1130390991F6A95E2F7822B85BB80E0089541118D
S11303A00DC022B381E090E002C0880F991F6A95C6
S11303B0E2F78095822382BB80E008954130A1F466
S11303C022B381E090E002C0880F991F6A95E2F79A
S11303D0822B82BB80E0089580E0089581E0089537
S11303E081E0089581E0089581E00895EE0FFF1FF4
S10F03F00590F491E02D0994F894FFCFDF
S9030000FC
